:100000000EC01DC01CC0E2C01AC019C018C017C065
:1000100016C015C014C013C012C011C010C01124E6
:100020001FBECFE5D2E0DEBFCDBF20E0A0E6B0E04E
:1000300001C01D92AC36B207E1F756D04CC3E0CFF9
:1000400087B1806987B987E086B9379A369A369939
:10005000FECF84B195B1089597B1907F8F70892BB1
:1000600087B9369A3699FECF84B195B10895DF925B
:10007000EF92FF920F931F93CF93DF93D82EE12C33
:10008000F12C00E010E0C62FD0E0EC16FD0644F4A1
:100090008D2DE2DF080F191F8FEFE81AF80AF5CF50
:1000A000C801BE0104D3CB01DF91CF911F910F9105
:1000B000FF90EF90DF90089520E030E090E0281767
:1000C00039078CF4C49AE7EAF1E63197F1F700C0FA
:1000D0000000C498EFE4F3EC3197F1F700C00000A2
:1000E0002F5F3F4FECCF0895BC9AAADF6AE083E010
:1000F000BEDFBC0180E090E0B9D12AE037ED43EAF1
:100100005BE36AD260936000709361008093620049
:100110009093630060936400709365008093660021
:10012000909367002FE38DE093E021508040904052
:10013000E1F700C000006091600070916100809163
:1001400062009091630061D1862F60936800709384
:100150006900B2DF2FE38DE093E0215080409040B2
:10016000E1F700C0000020E030E040E251E460919F
:1001700060007091610080916200909163002CD2C8
:100180006B017C016091680070916900072E000C82
:10019000880B990B6DD120E030E040E251E41CD295
:1001A0009B01AC01C701B601C7D02FD1862F609348
:1001B0006A0070936B0080DF80B78F6880BF8FEF1D
:1001C0008DBD89B7806489BF7894FFCF1F920F924D
:1001D0000FB60F921124CF92DF92EF92FF922F93DE
:1001E0003F934F935F936F937F938F939F93AF93BF
:1001F000BF93EF93FF936AE083E039DFBC0180E0B7
:1002000090E034D12AE037ED43EA5BE3E5D1609337
:10021000600070936100809362009093630020E01F
:1002200030E040E450E4EDD087FF0BC081E044DFD4
:100230002FE986E891E0215080409040E1F700C02E
:100240000000C0906000D0906100E0906200F090EB
:100250006300A70196016091640070916500809130
:1002600066009091670068D02DEC3CEC4CEC5DE3AF
:10027000AFD118160CF04BC0C701B601C6D0862FFF
:10028000609368007093690017DF2FE38DE093E0BF
:10029000215080409040E1F700C0000020E030E0B5
:1002A00040E251E4609160007091610080916200D1
:1002B0009091630091D16B017C0160916800709115
:1002C0006900072E000C880B990BD2D020E030E09B
:1002D00040E251E481D19B01AC01C701B6012CD0B1
:1002E00094D0862F60936A0070936B00E5DE809156
:1002F000600090916100A0916200B09163008093D2
:10030000640090936500A0936600B0936700FF912E
:10031000EF91BF91AF919F918F917F916F915F917D
:100320004F913F912F91FF90EF90DF90CF900F90E2
:100330000FBE0F901F9018955058BB27AA270ED0BC
:100340000DC1FED030F003D120F031F49F3F11F405
:100350001EF4F3C00EF4E095E7FBE9C0E92F0FD1DE
:1003600080F3BA17620773078407950718F071F4D2
:100370009EF527C10EF4E0950B2EBA2FA02D0B0190
:10038000B90190010C01CA01A0011124FF27591BDA
:1003900099F0593F50F4503E68F11A16F040A22FE0
:1003A000232F342F4427585FF3CF46953795279551
:1003B000A795F0405395C9F77EF41F16BA0B620B50
:1003C000730B840BBAF09150A1F0FF0FBB1F661F97
:1003D000771F881FC2F70EC0BA0F621F731F841FDA
:1003E00048F4879577956795B795F7959E3F08F000
:1003F000B3CF9395880F08F09927EE0F97958795BF
:10040000089571D008F481E0089504D06894B11182
:10041000D9C00895BCD088F09F5790F0B92F992784
:10042000B751A0F0D1F0660F771F881F991F1AF0FF
:10043000BA95C9F712C0B13081F0C3D0B1E00895C8
:10044000C0C0672F782F8827B85F39F0B93FCCF349
:10045000869577956795B395D9F73EF490958095F5
:10046000709561957F4F8F4F9F4F0895E89409C015
:1004700097FB3EF490958095709561957F4F8F4FD7
:100480009F4F9923A9F0F92F96E9BB279395F695ED
:10049000879577956795B795F111F8CFFAF4BB0F6B
:1004A00011F460FF1BC06F5F7F4F8F4F9F4F16C0CF
:1004B000882311F096E911C0772321F09EE8872F59
:1004C000762F05C0662371F096E8862F70E060E015
:1004D0002AF09A95660F771F881FDAF7880F96958E
:1004E000879597F90895990F0008550FAA0BE0E832
:1004F000FEEF16161706E807F907C0F012161306E6
:10050000E407F50798F0621B730B840B950B39F425
:100510000A2661F0232B242B252B21F408950A268B
:1005200009F4A140A6958FEF811D811D089597F9CB
:100530009F6780E870E060E008959FEF80EC089589
:1005400000240A94161617061806090608950024B2
:100550000A9412161306140605060895092E03942C
:10056000000C11F4882352F0BB0F40F4BF2B11F4A0
:1005700060FF04C06F5F7F4F8F4F9F4F089557FDFF
:100580009058440F551F59F05F3F71F04795880F01
:1005900097FB991F61F09F3F79F087950895121698
:1005A00013061406551FF2CF4695F1DF08C0161644
:1005B00017061806991FF1CF8695710561050894F5
:1005C0000895E894BB2766277727CB0197F908950C
:1005D0008ADF08F48FEF08950AD0C0CFB1DF28F08A
:1005E000B6DF18F0952309F0A2CFA7CFEBCFC7DF76
:1005F000A8F39923D9F35523C9F3950F50E0551F5C
:10060000AA27EE27FF27BB2700240894679520F42C
:10061000E20FF31FB41F0A1E220F331F441FAA1F2D
:100620006695A9F7779530F4F30FB41F0A1E121ED2
:1006300008F46395330F441FAA1F221F769599F77C
:10064000879520F4B40F0A1E121E631F440FAA1FC1
:10065000221F331F8695A9F7862F712D602D112437
:100660009F5750408AF0E1F088234AF0EE0FFF1FB9
:10067000BB1F661F771F881F91505040A9F79E3FF0
:10068000510570F054CF9ECF5F3FECF3983EDCF302
:10069000869577956795B795F795E7959F5FC1F72D
:1006A000FE2B880F911D9695879597F90895AA1BA3
:1006B000BB1B51E107C0AA1FBB1FA617B70710F04D
:1006C000A61BB70B881F991F5A95A9F7809590957F
:0A06D000BC01CD010895F894FFCF9E
:00000001FF
